:020000040800F2
:10000000005000201D3700086533000867330008E2
:10001000693300086B3300086D33000800000000EE
:100020000000000000000000000000006F33000826
:1000300071330008000000007333000875330008B6
:100040006537000865370008653700086537000820
:100050006537000865370008653700086537000810
:1000600065370008653700086537000879330008F0
:1000700065370008653700086537000865370008F0
:1000800065370008653700086537000865370008E0
:1000900085330008653700086537000865370008B4
:1000A00065370008653700086537000865370008C0
:1000B00065370008653700086537000865370008B0
:1000C00065370008653700086537000865370008A0
:1000D0006537000865370008653700086537000890
:1000E0006537000865370008653700080000000024
:1000F0000000000000000000000000000000000000
:0C01000000000000000000005FF808F1A3
:10010C0010B5054C237833B9044B13B10448AFF345
:10011C0000800123237010BDF400002000000000BB
:10012C00C037000808B5034B1BB103490348AFF3B4
:10013C00008008BD00000000F8000020C037000857
:10014C0038B50E4B054618784FF47A73B3FBF0F3C1
:10015C000B4A1068B0FBF3F000F0B4FA044658B93F
:10016C000F2D09D8024629464FF0FF3000F06AFAED
:10017C00044B20461D6038BD012038BD0000002016
:10018C008800002004000020074A08B513680320EB
:10019C0043F01003136000F043FA0020FFF7D0FF88
:1001AC0003F01EF8002008BD00200240034A044B57
:1001BC0011681B780B441360704700BF3801002096
:1001CC0000000020014B1868704700BF3801002068
:1001DC007047436A10B59A6A12F0500F1BD19A6A95
:1001EC0042F400729A621A68926802F46022B2F5C4
:1001FC00602F0CD1DA6852B99A6A22F480729A6232
:10020C009A6AD2045EBF9A6A42F001029A62184658
:10021C00FFF7DEFF10BD1B6ABDE810401B6B1847D3
:10022C00704708B5406AFFF7FBFF08BD7047406A8E
:10023C0008B5836A43F040038362C36A43F0040346
:10024C00C362FFF7F3FF08BD002373B5019390F869
:10025C002430012B74D001234D6880F82430062DF6
:10026C0002684FEA85030C6825D82B441F25566B72
:10027C00053B9D4026EA050504FA03F32B43536323
:10028C00092C4FEA44038D682FD907262344D168E3
:10029C001E3B9E4021EA060105FA03F30B43D36093
:1002AC00A4F11003012B2BD90023002280F8242069
:1002BC00184602B070BD0C2D0BD82B441F25166BA5
:1002CC00233B9D4026EA050504FA03F32B431363F5
:1002DC00D6E72B441F25D66A413B9D4026EA0505EF
:1002EC0004FA03F32B43D362CAE7072611692344AC
:1002FC009E4021EA060105FA03F30B431361CFE795
:10030C00104B9A4216D193681B02CDD49368102CD3
:10031C0043F400039360C7D10B4B0C4A1B68B3FB2F
:10032C00F2F20A2353430193019B002BBCD0019B97
:10033C00013BF8E7836A43F0200383620123B4E7AF
:10034C000223B5E7002401408800002040420F0042
:10035C00002373B50193036804469A68D20702D54B
:10036C00002002B070BD9A6842F001029A60124BF4
:10037C00124A1B68B3FBF2F30193019BC3B9FFF75D
:10038C0021FF064623689D6815F00105E8D1FFF7AB
:10039C0019FF801B0228F5D9A36A84F8245043F076
:1003AC001003A362E36A012043F00103E362D8E780
:1003BC00019B013BE0E700BF8800002040420F009A
:1003CC002DE9D8419046404B026804469A420F46AC
:1003DC0002D03E498A4203D15B6813F4702F6ED170
:1003EC0094F82430012B6CD00123204684F824305F
:1003FC00FFF7AEFF064600285DD1A06A216820F405
:10040C007060324B20F0010040F480709942A06281
:10041C0004D12D4A536813F4702F3ED1A36A23F4F0
:10042C008013A3624B685A0505D5A36A23F4405385
:10043C0043F48053A362A36A206A13F4805318BF59
:10044C00E36A3A4618BF23F00603E362002384F8FC
:10045C0024301F4B4C3183621E4BC3621E4B036313
:10046C006FF0020341F84C3C51F8443C43F4807368
:10047C0041F8443C434600F06BF923689A6802F457
:10048C006022B2F5602F9A680CBF42F4A00242F4CD
:10049C0080129A603046BDE8D881A36A43F4801379
:1004AC00A36253685B0541BFA06A20F4405040F43E
:1004BC008050A062BFE7002384F82430EAE70126CD
:1004CC00E8E70226E6E700BF0024014000280140CF
:1004DC00DF0100082F0200083B02000838B5036852
:1004EC0004469A68D20701D4002038BD9A6822F0DD
:1004FC0001029A60FFF766FE054623689B68DB07DE
:10050C00F2D5FFF75FFE401B0228F6D9A36A012043
:10051C0043F01003A362E36A43F00103E36238BDC6
:10052C0070B50446002871D0836A23B9C36280F881
:10053C00243002F077FE2046FFF7D0FFA36A13F0B9
:10054C00100FA36A64D1002862D1E16923F48853A7
:10055C00626823F0020343F002030A43A168A3621A
:10056C00E368B1F5807F42EA430238D0012914BF19
:10057C0006464FF480766569012D07D1002B30D1EA
:10058C00A369013B46EA433545F400662368B1F59F
:10059C00807F5D6825F4694545EA06055D609E68C7
:1005AC001D4D05EA060545EA02059D6001D00129AD
:1005BC0020D1216901390905DD6A25F4700529432B
:1005CC00D9629968154B0B409A4215D10023E3620E
:1005DC00A36A23F0030343F00103A36270BD0E462C
:1005EC00C9E7A36A43F02003A362E36A43F0010363
:1005FC00E362CBE70021DFE7A36A23F0120343F0A9
:10060C001003A362E36A43F00103E362012070BDAF
:10061C0043F01003A362F9E7FDF7E1FFFE0E1FFFA5
:10062C00074A0002D36800F4E06023F4E0631B0483
:10063C001B0C43F0BF6343F400330343D360704798
:10064C0000ED00E0174B30B5DC68C4F30224C4F1B4
:10065C000703251D042B28BF0423062D4FF001058D
:10066C0098BF002405FA03F303F1FF3388BF033C62
:10067C001940A14005FA04F4013C2240002842EA4A
:10068C0001024FEA0212AFBF00F16040064B00F0CE
:10069C000F00D2B2A5BFD2B200F561401A5480F857
:1006AC00002330BD00ED00E014ED00E00123420911
:1006BC0000F01F0003FA00F0014B43F822007047D2
:1006CC0000E100E00138B0F1807F0AD2F021064B46
:1006DC00064A586082F823100020072298601A609E
:1006EC0070470120704700BF10E000E000ED00E013
:1006FC0010B530B314220168134B84680B44B3FB60
:10070C00F2F39B000364114B0A68C363436822F441
:10071C007F522343C46822F03002234304692343ED
:10072C004469234384692343C469234313430B6003
:10073C000122002380F82120836380F820301846A2
:10074C0010BD012010BD00BFF8FFFDBF000002402E
:10075C00F0B590F82040012C35D0012490F82150B0
:10076C0080F82040A5424FF000064FF0020428D13B
:10077C0080F82140046886632668076C26F0010621
:10078C002660C66BBD407560636043680568102BBE
:10079C00C36A0BBFA260A160E160E2604BB1236849
:1007AC0043F00E0323602B68002043F001032B6001
:1007BC00F0BD236823F004032360236843F00A038D
:1007CC00F0E780F820600220F0BD000070B4042532
:1007DC00C66B026C3468036895402542196832D0A8
:1007EC004D0730D51A6896065EBF1A6822F00402CF
:1007FC001A603E4A934219D01432934218D01432E4
:10080C00934217D01432934217D01432934217D01C
:10081C00143293420CBF4FF480034FF08063344A80
:10082C005360C36A002B5ED070BC18470423F6E7F4
:10083C004023F4E74FF48063F1E74FF48043EEE795
:10084C004FF48023EBE702259540254235D08D07E8
:10085C0033D51A68940606D41A6822F00A021A6074
:10086C00012280F82120214A934219D0143293425C
:10087C0018D01432934217D01432934217D014323A
:10088C00934217D0143293420CBF4FF400134FF025
:10089C000073174A5360002380F82030836AC1E745
:1008AC000223F6E72023F4E74FF40073F1E74FF44B
:1008BC000053EEE74FF40033EBE708259540254253
:1008CC0011D009070FD5196821F00E011960012309
:1008DC0003FA02F27260836380F82130002380F8FF
:1008EC002030036B9EE770BC704700BF08000240CD
:1008FC00000002402DE9F74F00221646654BDFF849
:10090C00A4E1DFF8A4C14FF001080C6808FA06F85E
:10091C0008EA0404A0457FD14D68122D00F0AF8089
:10092C0000F28880022D00F0A7807CD8002D00F00A
:10093C008E80012D00F09E804FF00F09FF2C93BF8D
:10094C00824606F18045083DD0F800B092BFB50054
:10095C00D0F804B0AD0009FA05F82BEA080802FA41
:10096C0005F588BF00F1040A48EA0505CAF80050ED
:10097C00D1F804A01AF0805F4ED0474D464FAD69B8
:10098C0026F0030845F00105BD61BD6908F18048FA
:10099C0005F00105019508F5803806F0030B019D63
:1009AC004FEA8B0BD8F8085009FA0BF925EA09091C
:1009BC003A4DA84268D005F58065A84266D005F589
:1009CC008065A84264D005F58065A8420CBF03255C
:1009DC00042505FA0BF545EA0905C8F808501D6809
:1009EC001AF4803F14BF2543A5431D605D681AF4BB
:1009FC00003F14BF2543A5435D609D681AF4801F1A
:100A0C0014BF2543A5439D60DD681AF4001F14BF75
:100A1C002C4325EA0404DC600136102E7FF473AFFE
:100A2C0003B0BDE8F08F032D22D0112D84D1CA68FC
:100A3C00043281E71A4FBD4209D012D8DFF86C900E
:100A4C004D4504D009F580394D457FF475AF8A6862
:100A5C00C2B1012A0CBFC0F81080C0F81480082263
:100A6C006AE77545F3D06545F1D0DFF84490EBE7C4
:100A7C00002261E7CA685FE7CA6808325CE7CA68A7
:100A8C000C3259E7042257E70025A2E70125A0E71D
:100A9C0002259EE7000401400010024000080140BE
:100AAC000000211000003110000032100000111065
:100ABC00000022108368194214BF012000207047E7
:100ACC000AB1016170470904FBE7C3685940C16072
:100ADC0070472DE9F041044686B0002860D090F8AC
:100AEC00293403F0FF021BB980F8282402F08CFC97
:100AFC00254603236E4655F8100B84F8293401F073
:100B0C0045F90FCD0FC62B6804F10408336098E843
:100B1C000E00206801F02AF90021206801F040F94C
:100B2C000021234622460126084604F1100582F8CE
:100B3C002810918601310F2982F8296082F82B0048
:100B4C009063D063106402F12002F0D100221746AA
:100B5C0083F828229A8601320F2A83F8297283F8A7
:100B6C002B72C3F83872C3F83C72C3F8407203F1AD
:100B7C002003EDD16E460FCD0FC62B68336098E87D
:100B8C000E00206801F00EF9012384F8247020680F
:100B9C0084F8293401F0DEFB002006B0BDE8F081BA
:100BAC000120FAE790F8283410B5012B04460ED03A
:100BBC00012180F8281402F040FD206801F0C8FBE8
:100BCC00206801F0DAF8002084F8280410BD022017
:100BDC0010BD90F8282410B5012A04460BD0012230
:100BEC0080F8282484F82410006801F0ABFB002066
:100BFC0084F8280410BD022010BD38B5044648B254
:100C0C00002801F07F05B5BF04EB451104EB411141
:100C1C00283101F50A71C00F0D704870CB7094F833
:100C2C0028340A61012B09D00123206884F8283468
:100C3C0001F0D4F8002084F8280438BD022038BD17
:100C4C004BB2002B01F07F02B5BF00EB421100EB61
:100C5C004111283101F50A71DB0F10B50A704B7088
:100C6C0090F828340446012B09D0012380F828344D
:100C7C00006801F025FA002084F8280410BD022039
:100C8C0010BD70B5002601F07F014D01441984F8A8
:100C9C00281205F50A710144C4F83C22C4F840320C
:100CAC00C4F8446284F82962006801F06DFB304698
:100CBC0070BD01F07F0170B54D014419236400260D
:100CCC00012384F8281005F128010144E2636664CD
:100CDC0084F82930006801F057FB304670BD0000E5
:100CEC002DE9F3470446006801F036FB000400F1DF
:100CFC009880206801F030FB41050FD52268204612
:100D0C00B2F8443023F480631B041B0CA2F844306B
:100D1C0002F0B1FB00212046FFF75BFF206801F0D9
:100D2C001BFB470408D52268B2F8443023F48043F7
:100D3C001B041B0CA2F84430206801F00DFB860448
:100D4C0008D52268B2F8443023F400531B041B0C62
:100D5C00A2F84430206801F0FFFAC5041CD52268C3
:100D6C002046B2F8403023F004031B041B0CA2F8FD
:100D7C004030B2F8403023F008031B041B0CA2F8DF
:100D8C00403002F095FB2268B2F8443023F48053D3
:100D9C001B041B0CA2F84430206801F0DDFA00059E
:100DAC001DD52068B0F840309BB243F00803A0F882
:100DBC004030B0F8443023F400631B041B0CA0F843
:100DCC004430B0F840309BB243F00403A0F84030FC
:100DDC0001F0C2FAC10402D4204602F059FB20688B
:100DEC0001F0BAFA82050BD522682046B2F84430DD
:100DFC0023F400731B041B0CA2F8443002F037FBE5
:100E0C00206801F0A9FAC30508D52268B2F844306D
:100E1C0023F480731B041B0CA2F8443002B0BDE811
:100E2C00F0870023C84FDFF82483DFF82493ADF854
:100E3C000430ADF806302068B0F844309BB2ADF801
:100E4C0004301B047FF555AFBDF8045015F00F05A9
:100E5C0040F0AB80BDF80410038811F010019BB278
:100E6C0026D13B400380B0F8503094F828209BB238
:100E7C0003EBC20300EB4300D0F80434E26BC3F382
:100E8C00090363641344E363204602F0E9FA94F81F
:100E9C002430002BCFD0226C002ACCD194F82430F3
:100EAC00216843F08003A1F84C3084F82420C2E779
:100EBC00ADF80630BDF806301A051FD5B0F8503025
:100ECC0094F828229BB203EBC20300EB4303D3F844
:100EDC000C34B4F82C22C3F30903C4F8443204F2E2
:100EEC002C4101F051FB22682046138823F070033B
:100EFC001B051B0D138002F0A5FA9CE7BDF806300C
:100F0C001B0498D5038823F070031B051B0D03806D
:100F1C00B0F8503094F828229BB203EBC20300EBDC
:100F2C004303D3F80C34C3F30903C4F8443263B15C
:100F3C00B4F82C22D4F83C1201F026FBD4F83C3245
:100F4C00D4F844221344C4F83C320021204602F069
:100F5C007FFA2268D4F83852B2F850103E2D89B27C
:100F6C0001F1060102F5806017D9C5F34F13EE06A7
:100F7C0004BF03F1FF339BB249EA83239BB240F8D1
:100F8C00113013889BB203EA080383F4405343F4F3
:100F9C00004343F0800313804DE7C5F34F03ED0787
:100FAC0044BF01339BB29B02E8E730F825309BB27B
:100FBC00ADF80630BDF8063019043FD530F82530B1
:100FCC004FEA451A23F070031B051B0D20F8253042
:100FDC0004EB0A0191F83232002B74D1B0F8503086
:100FEC0091F828229BB2063303EBC20300EB4303B8
:100FFC00D3F80064C6F3090636B1B1F82C22334697
:10100C00D1F83C1201F0C0FA04EB0A01D1F84432D9
:10101C00D1F83C223344C1F84432D1F84032324446
:10102C00C1F83C2223B1D1F83802864280F0868088
:10103C00A2449AF82812204602F00AFABDF80630AB
:10104C001A067FF5F8AE20686E0130F82530A1192C
:10105C009BB23B4020F8253091F832300235002B02
:10106C0078D1B0F8503091F828209BB2023303EBC2
:10107C00C20300EB4303D3F8003404EB4515C3F370
:10108C0009036B601BB18A8DC96B01F06BF9226887
:10109C002644B2F8503096F828109BB2023303EB7A
:1010AC00C10302EB4303D3F80024F36BC2F3090230
:1010BC0072641A44336CF2632046002B40F0858036
:1010CC0002F0CEF9B7E691F8283230F82320DB0095
:1010DC0012F4804FB0F8502092B221D00232134457
:1010EC0000EB4303D3F80064C6F3090636B133466C
:1010FC00B1F82E22D1F83C1201F046FA04EB0A03A7
:10110C0093F82812226832F8213023F0F0031B05E3
:10111C001B0D43F4004343F0C00322F8213073E766
:10112C000632134400EB4303D3F80064C6F30906FC
:10113C00002EE3D03346B1F83022DBE791F82812C9
:10114C002046FFF79EFD79E70F8FFFFF8FBFFFFF54
:10115C000080FFFF91F8283030F82320DB0012F0DC
:10116C00400FB0F8502092B220D00232134400EB62
:10117C004303D3F8003404EB4515C3F309036B6048
:10118C001BB1CA8DC96B01F0EDF8A31993F82810A7
:10119C00226832F8213023F0F0031B051B0D43F4B9
:1011AC00404343F0800322F8213070E706321344A9
:1011BC0000EB4303D3F8003404EB4515C3F30903E8
:1011CC006B60002BE1D00A8EDCE7FFF772FD32E694
:1011DC00012238B54BB2002B01F07F05B5BF00EBF7
:1011EC00451100EB4111283101F50A71DB0FEDB20D
:1011FC008A700D704B7090F82834044693420ED0D0
:10120C0080F82824006801F029F825B904F22C4153
:10121C00206801F0A5F8002084F8280438BD0220CD
:10122C0038BD38B500244BB2002B01F07F02B5BF9E
:10123C0000EB421100EB4111283101F50A71DB0F73
:10124C008C700A704B7090F828340546012B09D02D
:10125C00012380F82834006801F032F885F828441E
:10126C00204638BD022038BD11F0800F1BBF01F0A5
:10127C007F0100EB411000EB4110283008BF00F556
:10128C000A701AB982728380002070470122C380D1
:10129C001B0C82720381F7E703682DE9F341DB072E
:1012AC00054610D42B689F075ED42B68190700F1F4
:1012BC0095802B685A0700F1BF80EA69002A40F03C
:1012CC002D81002014E0904C636803F00C03042B78
:1012DC0007D0636803F00C03082B0CD16368DE03A2
:1012EC0009D523689C03DDD56B68002BDAD101206E
:1012FC0002B0BDE8F0816B68B3F5803F10D1236874
:10130C0043F480332360FEF75DFF064623689803A1
:10131C00C8D4FEF757FF801B6428F7D90320E7E7F2
:10132C009BB9236823F480332360236823F4802340
:10133C002360FEF747FF064623689903B2D5FEF7F4
:10134C0041FF801B6428F7D9E8E7B3F5A02F236889
:10135C0003D143F480232360D1E723F4803323604B
:10136C00236823F48023CDE7674C636813F00C0FDC
:10137C0007D0636803F00C03082B10D16368DA0301
:10138C000DD423689B0702D52B69012BAFD12368A1
:10139C006A6923F0F80343EAC203236085E72A69EC
:1013AC005A4B6AB101221A60FEF70CFF06462368FD
:1013BC009F07ECD4FEF706FF801B0228F7D9ADE798
:1013CC001A60FEF7FFFE0646236898077FF56DAF9F
:1013DC00FEF7F8FE801B0228F6D99FE7AA694A4C53
:1013EC004B4BDAB101221A60FEF7ECFE0646636A3B
:1013FC009B070DD54FF4FA52464B1B68B3FBF2F327
:10140C00019300BF019B5A1E0192002BF9D150E7AA
:10141C00FEF7D8FE801B0228E9D97FE71A60FEF799
:10142C00D1FE0646636A9F077FF543AFFEF7CAFEFF
:10143C00801B0228F6D971E7334CE369D80024D419
:10144C000127E36943F08053E361E36903F08053C0
:10145C000093009B304E3368D90518D5EB68012BEF
:10146C0026D1236A43F001032362FEF7ABFE41F25F
:10147C0088368046236A9B073FD5002F3FF41DAF6B
:10148C00E36923F08053E36117E70027E2E7336851
:10149C0043F480733360FEF795FE80463368DA05BB
:1014AC00DCD4FEF78FFEA0EB08006428F6D935E7F4
:1014BC00ABB9236A41F2883823F001032362236A13
:1014CC0023F004032362FEF77DFE0646236A980789
:1014DC00D3D5FEF777FE801B4045F7D91EE7052BC9
:1014EC00236A03D143F004032362BAE723F0010318
:1014FC002362236A23F00403B6E7FEF763FEA0EB36
:10150C000800B042B6D909E7001002400000424280
:10151C00800442428800002000700040224C636826
:10152C0003F00C03082B3FF4E2AE00231F4E022AFB
:10153C0033602BD1FEF746FE0746236899011FD472
:10154C002B6AB3F5803F05D16268A96822F400329A
:10155C000A436260696A62680B4322F47412134393
:10156C00636001233360FEF72DFE054623689A0164
:10157C003FF5A7AEFEF726FE401B0228F6D9CDE6B6
:10158C00FEF720FEC01B0228D7D9C7E6FEF71AFECD
:10159C00054623689B017FF594AEFEF713FE401BB6
:1015AC000228F6D9BAE600BF0010024060004242A1
:1015BC0030B5194B87B002AC03F110052246186800
:1015CC005968083303C2AB421446F7D101238DF896
:1015DC000430022311498DF805304B6803F00C02DE
:1015EC00082A17D1C3F3834206A80244DB0312F87E
:1015FC00102C0CD54B680A48C3F34043504306AA41
:10160C00134413F8143CB0FBF3F007B030BD05489D
:10161C005043FAE70248F8E7D837000800100240B8
:10162C0000127A0000093D00544A2DE9F04113687C
:10163C00054603F007038B420E462AD329688C0714
:10164C0034D4CA0747D44D4A136803F007039E42AB
:10165C00C0F082802A684A4C12F0040F40F0878058
:10166C00130706D563682A6923F4605343EAC2035F
:10167C006360FFF79DFF6368424AC3F30313D35CB7
:10168C00D840414B18600020FEF75AFD0020BDE801
:10169C00F081136823F007030B431360136803F006
:1016AC0007039942CAD00120BDE8F081344B11F0F8
:1016BC00040F1EBF5A6842F4E0625A60080742BF2A
:1016CC005A6842F460525A605A68A86822F0F002D4
:1016DC0002435A60B5E76A68294C012A23681CD179
:1016EC0013F4003FDFD0636841F2883823F0030322
:1016FC0013436360FEF766FD6B680746012B14D13C
:10170C00636803F00C03042B9DD0FEF75BFDC01B3C
:10171C004045F5D90320BDE8F081022A02D113F02F
:10172C00007FDFE713F0020FDCE7022B0FD16368B9
:10173C0003F00C03082B86D0FEF744FDC01B40457C
:10174C00F5D9E7E7FEF73EFDC01B4045E2D86368DC
:10175C0013F00C0FF6D176E7136823F0070333432D
:10176C001360136803F007039E429CD172E7636811
:10177C00E96823F4E0630B43636071E700200240E7
:10178C0000100240E83700088800002003682DE9AB
:10179C00F341D907054620D5354CE369DA0032D43C
:1017AC000127E36943F08053E361E36903F080535D
:1017BC000193019B2F4E3368DB0526D5236A13F466
:1017CC00407336D1236A6A6823F44073134323624F
:1017DC001FB1E36923F08053E3612868830706D5C2
:1017EC00234AA968536823F440430B43536010F019
:1017FC0010001BD01E4AE9685368002023F48003B4
:10180C000B43536012E00027D4E7336843F4807332
:10181C003360FEF7D7FC80463368D805CED4FEF78C
:10182C00D1FCA0EB08006428F6D9032002B0BDE877
:10183C00F0816A6802F440729342C3D001200E4AD0
:10184C00236A1060002023F4407110602162D907D4
:10185C00B8D5FEF7B7FC41F288380646236A9A07DA
:10186C00B0D4FEF7AFFC801B4045F7D9DDE700BFD5
:10187C00001002400070004040044242036A70B500
:10188C0023F001030362036A446882690D6822F045
:10189C0073022A438D6823F002032B430A4DA8429E
:1018AC000BD1CD6823F008032B438E694D6924F4CA
:1018BC004074354323F004032C43446082614A682E
:1018CC004263036270BD00BF002C0140036A70B517
:1018DC0023F480730362036A4468C2690D6822F0C2
:1018EC0073022A438D6823F4007343EA05230B4DDE
:1018FC00A8420DD1CD6823F4006343EA05238E6919
:10190C004D6924F44054354323F4806344EA0514B0
:10191C004460C2614A68C263036270BD002C01401E
:10192C00036A30B523F480530362036A4468C269C6
:10193C000D6822F4E64242EA05228D6823F4005336
:10194C0043EA0533064DA84202BF4D6924F4804496
:10195C0044EA85144460C2614A680264036230BD83
:10196C00002C014003680020DA6842F00102DA60C2
:10197C001A6842F001021A607047704790F83C30C8
:10198C0070B5012B4FF002031CD0012280F83D30C2
:10199C00036880F83C209A6822F47F4222F0770298
:1019AC009A600A68402A79D019D8102A00F09380DE
:1019BC000AD8002A00F08980012380F83D300023EA
:1019CC0080F83C30184670BD202A00F08A80302AFE
:1019DC00F2D19A6822F0700242F0370236E0702A97
:1019EC0036D01BD8502A42D0602AE5D11C6A4D68EB
:1019FC0024F01004CE681C6299691A6A21F47041B3
:101A0C0022F0A00242EA051241EA063199611A62FB
:101A1C009A6822F0700242F0670217E0B2F5805F1C
:101A2C0011D0B2F5005FC7D18A684D689C68C9684F
:101A3C002A4324F47F4442EA012222439A609A68A2
:101A4C0042F4804202E09A6822F007029A60B3E7FF
:101A5C008A684D689C68C9682A4324F47F4442EA2A
:101A6C00012222439A609A6842F07702EEE74C68B2
:101A7C00CE68196A1D6A21F00A0125F001051D6264
:101A8C009A69214322F0F00242EA06129A61196225
:101A9C009A6822F0700242F05702D7E74C68CE6881
:101AAC00196A1D6A21F00A0125F001051D629A6967
:101ABC00214322F0F00242EA06129A6119629A68F6
:101ACC0022F0700242F04702C0E79A6822F07002DE
:101ADC0042F00702BAE79A6822F0700242F017024D
:101AEC00B4E79A6822F0700242F02702AEE70000D9
:101AFC001A4A036890420AD0B0F1804F07D0A2F581
:101B0C009432904203D002F58062904215D14A681B
:101B1C0023F070031343114A90420AD0B0F1804F66
:101B2C0007D0A2F59432904203D002F58062904225
:101B3C0003D1CA6823F4407313434A6923F080032A
:101B4C00134303608B68C3620B688362034B984238
:101B5C0004BF0B690363012343617047002C0140F0
:101B6C0010B50446A0B190F83D3003F0FF021BB94C
:101B7C0080F83C2001F0A2FB0223206884F83D3061
:101B8C00211DFFF7B5FF0123002084F83D3010BD67
:101B9C00012010BD10B50446A0B190F83D3003F003
:101BAC00FF021BB980F83C20FFF7E7FE02232068F8
:101BBC0084F83D30211DFFF79BFF0123002084F8A2
:101BCC003D3010BD012010BD036A70B523F0100329
:101BDC000362036A446882690D6822F4E64242EAB1
:101BEC0005228D6823F0200343EA05130B4DA84210
:101BFC000DD1CD6823F0800343EA05138E694D693E
:101C0C0024F44064354323F0400344EA85044460E3
:101C1C0082614A688263036270BD00BF002C014080
:101C2C0038B590F83C300446012B4FF0020025D01B
:101C3C00012384F83D0084F83C300C2A18D8DFE8E6
:101C4C0002F0071717171E1717172F171717400033
:101C5C002068FFF713FE236809699A6942F00802AD
:101C6C009A619A6922F004029A619A690A439A610C
:101C7C000123002084F83D3084F83C0038BD2068F6
:101C8C00FFF7A2FF236809699A6942F400629A611E
:101C9C009A6922F480629A619A6942EA0122E6E723
:101CAC002068FFF713FE23680969DA6942F008021D
:101CBC00DA61DA6922F00402DA61DA690A43DA617C
:101CCC00D6E72068FFF72CFE23680969DA6942F42D
:101CDC000062DA61DA6922F48062DA61DA6942EA76
:101CEC000122ECE710B50124036A8C4023EA0403BB
:101CFC000362036A8A401A43026210BD10B504469F
:101D0C0001220068FFF7EEFF2368064A0020934289
:101D1C0002BF5A6C42F400425A641A6842F0010243
:101D2C001A6010BD002C014090F83C3010B5012B0E
:101D3C004FF0020318D080F83D3003680C685A68E5
:101D4C00496822F070025A605A6822435A609A68B5
:101D5C0022F080029A609A680A439A60012380F804
:101D6C003D30002380F83C30184610BD84B001A8EB
:101D7C0080E80E0004B000207047B0F840309BB2F1
:101D8C0043F43F43A0F8403000207047B0F8403097
:101D9C0023F474535B045B0CA0F8403000207047B4
:101DAC000020704784B010B503AC84E80E00BDE889
:101DBC00104000220123A0F84030A0F84020A0F8E9
:101DCC004420A0F85020B0F8403004B09BB243F44B
:101DDC003F43A0F8403010467047000070B5CB78F8
:101DEC000A78032B0FD8DFE803F00264505930F85F
:101DFC00223023F4EC4323F070031B041B0C43F43C
:101E0C00007320F8223040F60F730C7830F8242041
:101E1C0044F4004545F080051A402A4320F824205C
:101E2C008A7A0D78002A40F097804C788A88002CAA
:101E3C004AD0B0F850405208A4B204EBC50400EBF1
:101E4C0044045200C4F800240C7830F824205206C4
:101E5C0008D530F82420134043F4004343F0C0036A
:101E6C0020F824300A7830F8223023F4E04323F0B1
:101E7C0040031B041B0C83F0200343F4004343F08A
:101E8C00800320F82230002070BD30F8223023F47B
:101E9C00EC4323F070031B041B0CB2E730F8223028
:101EAC0023F4EC4323F070031B041B0C43F4C063BA
:101EBC00A7E730F8223023F4EC4323F070031B0423
:101ECC001B0C43F480639CE7B0F8503052089BB273
:101EDC00043303EBC503520000F5806444F813206F
:101EEC00B0F850200D6992B20B7806323E2D02EB01
:101EFC00C30229D9C5F34F16EB0604BF06F1FF3315
:101F0C009EB26E4B43EA86239BB244F812300A7899
:101F1C0030F822305E040BD530F8223023F0F00379
:101F2C001B051B0D43F4404343F0800320F8223083
:101F3C000A7830F8223023F4804323F070031B041A
:101F4C001B0C83F4405398E7C5F34F03ED0744BFD4
:101F5C0001339BB29B02D7E730F8252022F4F872AC
:101F6C001205120D42F4014242F0800220F82520A5
:101F7C00B0F850200C7892B202EBC402CC8800F579
:101F8C0080656408640045F81240B0F850200C7865
:101F9C0092B2043202EBC4020C896408640045F866
:101FAC0012404A780C78002A47D130F82420550486
:101FBC0008D530F82420134043F4404343F0800309
:101FCC0020F824300A7830F822305C060BD530F833
:101FDC00223023F0F0031B051B0D43F4004343F0A8
:101FEC00C00320F822300A7830F8223023F0F003B6
:101FFC001B051B0D43F4004343F0C00320F82230B3
:10200C0048F280020C7830F8243023F4804323F01B
:10201C0070031B041B0C83F44053134320F824302F
:10202C00097830F8213023F4E04323F040031B04FB
:10203C001B0C134320F8213025E730F824205204E0
:10204C0008D530F82420134043F4404343F0800378
:10205C0020F824300A7830F822305B060BD530F8A3
:10206C00223023F0F0031B051B0D43F4004343F017
:10207C00C00320F822300A7830F8223023F0F00325
:10208C001B051B0D43F4404343F0800320F8223022
:10209C0048F280020C7830F8243023F4E04323F02B
:1020AC0040031B041B0C134320F82430097830F830
:1020BC00213023F4804323F07003B8E70080FFFF46
:1020CC0010B58C7A4A780B78CCBB02B330F823204D
:1020DC0052060BD530F8232022F0F0021205120D17
:1020EC0042F4004242F0C00220F823200A7830F873
:1020FC00223023F4E04323F040031B041B0C43F475
:10210C00004343F0800320F82230002010BD30F84B
:10211C00232054040BD530F8232022F0F0021205B2
:10212C00120D42F4404242F0800220F823200A783B
:10213C0030F8223023F4804323F07003DDE7002ACB
:10214C0048D130F8232052040BD530F8232022F04C
:10215C00F0021205120D42F4404242F0800220F8C7
:10216C0023200A7830F822305C060BD530F8223068
:10217C0023F0F0031B051B0D43F4004343F0C00395
:10218C0020F822300A7830F8223023F0F0031B05B7
:10219C001B0D43F4004343F0C00320F8223048F2F7
:1021AC0080020C7830F8243023F4804323F0700341
:1021BC001B041B0C134320F82430097830F8213011
:1021CC0023F4E04323F040031B041B0C134320F8BF
:1021DC0021309AE730F8232052040BD530F8232015
:1021EC0022F0F0021205120D42F4404242F080023D
:1021FC0020F823200A7830F822305B060BD530F813
:10220C00223023F0F0031B051B0D43F4004343F075
:10221C00C00320F822300A7830F8223023F0F00383
:10222C001B051B0D43F4404343F0800320F8223080
:10223C0048F280020C7830F8243023F4E04323F089
:10224C0040031B041B0C134320F82430097830F88E
:10225C00213023F4804323F07003B5E70A788AB960
:10226C00038823F4804323F040031B041B0C83F4EA
:10227C00805383F0100343F4004343F08003038046
:10228C00002070474B7883B130F8223023F4E043C0
:10229C0023F040031B041B0C83F0100343F4004396
:1022AC0043F0800320F82230EAE730F8223023F4A0
:1022BC00804323F070031B041B0C83F48053EDE765
:1022CC004B780A7813B330F822305B060BD530F814
:1022DC00223023F0F0031B051B0D43F4004343F0A5
:1022EC00C00320F822300A7830F8223023F4E0437F
:1022FC0023F040031B041B0C83F0300343F4004316
:10230C0043F0800320F822300020704730F8223050
:10231C005B040BD530F8223023F0F0031B051B0DAA
:10232C0043F4404343F0800320F822300A7830F81D
:10233C00223023F4804323F070031B041B0C83F422
:10234C004053DBE711B98023A0F84C3000207047D4
:10235C000020704700207047B0F8440080B27047EE
:10236C000020704710B50024013300F580605B102D
:10237C0000EB4202A34200D110BD31F8020B22F84F
:10238C0024000134F6E7000070B50E468A694978DE
:10239C00054601293369B07A66D19A421C469BBF27
:1023AC0000231446D21AB36188BFB261A3B210BB2A
:1023BC00B28871692846FFF7D5FFB5F850303278EE
:1023CC009BB2023303EBC20305EB4303C3F8004497
:1023DC00327835F8223023F4E04323F040031B0419
:1023EC001B0C83F0300343F4004343F0800325F8C7
:1023FC002230002070BD327835F82210D20011F056
:10240C00400FB5F8501089B21AD002310A4405EBCE
:10241C004202C2F80044328971692846FFF7A2FFD4
:10242C00737832789BB935F8223023F0F0031B0512
:10243C001B0D43F4004343F0C00325F82230C7E7DB
:10244C000A4405EB4202C2F80444F288E4E7012B8B
:10245C00BED135F8223023F0F0031B051B0D43F4DD
:10246C00404343F08003E8E79A4293BF0023D21A1B
:10247C00B261B36198BF1346327870BBB5F8501097
:10248C003E2B89B201F1060101EBC20105F580601A
:10249C0018D9C3F34F12DB0604BF02F1FF339AB213
:1024AC00384B43EA82239BB240F81130327835F82E
:1024BC00223023F4804323F070031B041B0C83F4A1
:1024CC00405390E7C3F34F02DC0744BF013292B292
:1024DC00920292B240F81120E8E7B9B9B5F8501061
:1024EC003E2B89B201F1020101EBC20105F58064BA
:1024FC0028D9C3F34F10DA0604BF00F1FF3290B2B3
:10250C00204A42EA802292B244F811207278317843
:10251C005ABBB5F850203E2B92B202F1060202EBE8
:10252C00C10205F5806015D9C3F34F11DC0604BF59
:10253C0001F1FF3399B2134B43EA81239BB240F86C
:10254C001230B3E7C3F34F02D80744BF013292B243
:10255C009202D8E7C3F34F01DB0744BF013189B2C4
:10256C00890289B240F81210A0E7012A9ED1B5F871
:10257C00502092B2023202EBC10205EB4202C2F8C9
:10258C00003493E70080FFFF10B50024013300F501
:10259C0080605B1000EB4202A34200D110BD52F8E8
:1025AC00240021F814000134F6E7000029230380ED
:1025BC000048704744000020D0F8183200201877EB
:1025CC00704710B5D0F81842A369012B07D1D0F889
:1025DC001C326178DB68207898470023A3610020C7
:1025EC0010BD00000A230380004870477C000020C7
:1025FC0038B50446D0F81852D0F81C326978DB682C
:10260C00287898470A232A460121204601F002F82F
:10261C00002038BD38B50C78054614F06004D0F8AD
:10262C0018322DD0202C0CD14A78023A092A21D804
:10263C00DFE802F0140920202020201810058A78E9
:10264C00DA6000241AE0012203F10C01284600F0A4
:10265C0079FBF6E74A88120A1A61F2E7012203F1C4
:10266C001001F3E7012228469A618A79194600F095
:10267C007EFBE6E7284600F03EFB0224204638BDF0
:10268C004A780A2A1AD00B2A1ED0062AF6D14B8871
:10269C001B0A222B07D1CA88D0F81C32222A28BF49
:1026AC0022221968D2E7212B05D1CA880849092AA8
:1026BC0028BF0922CAE721462246C7E7012203F1B7
:1026CC00140100F03FFBD9E78A785A61D6E700BFC6
:1026DC007000002010B50446812100F045FF012157
:1026EC00204600F041FFD4F8183253B1D4F81C3214
:1026FC009B689847D4F8180200F09EFF0023C4F89A
:10270C001832002010BD70B505460A230322812122
:10271C0000F01AFF0A2303220121284600F014FFBF
:10272C00202000F085FF0646C5F8180268B1002489
:10273C00D5F81C3204775B6898470A23324601218E
:10274C00284600F067FF204670BD012070BD10B513
:10275C00134690F8FC21032A09D1D0F81842227FA5
:10276C002AB9012222770A46812100F045FF002078
:10277C0010BD19B1C0F81C12002070470220704720
:10278C0008B580B1D0F8143213B10023C0F814325C
:10279C0009B1C0F810120123027080F8FC3100F06E
:1027AC008BFE002008BD022008BD19B1C0F8141220
:1027BC00002070470220704708B500F0B7FE0020DB
:1027CC0008BD08B5D0F814320BB9022008BD1B683F
:1027DC0098470028F9D108BD08B5D0F814325B68C9
:1027EC009847002008BD38B500F502750446284608
:1027FC0000F06DFA012394F80812C4F8F431B4F81F
:10280C000E32C4F8F83101F01F03012B0ED007D3A0
:10281C00022B10D001F08001204600F0B3FE03E043
:10282C002946204600F0D6F8002038BD294620461F
:10283C0000F0D2F9F8E72946204600F0E5F9F3E775
:10284C0038B50446154611BBD0F8F431032B0FD123
:10285C00D0F80C31D0F8102193420BD99B1A9A4224
:10286C0028BF1A46C0F80C3192B2294600F08EFAF5
:10287C00002038BDD0F814321B6923B190F8FC212C
:10288C00032A00D19847204600F088FAF0E7D0F8E8
:10289C0014329B69002BEBD090F8FC21032AE7D172
:1028AC009847E5E770B5134604460E4600293DD11E
:1028BC00D0F8F421022A0FD1C569026A954214D9C5
:1028CC00AA1AC261194692B200F049FA33461A4666
:1028DC001946204600F09EFE94F80032012B02D1DE
:1028EC00002384F80032002070BD8369B3FBF2F53D
:1028FC0002FB153565B99A420AD8D0F8F8219342F3
:10290C0006D22A4600F02BFAC4F8F8512B46DEE723
:10291C00D4F81432DB682BB194F8FC21032A01D1D2
:10292C0020469847204600F044FAD5E7D0F81432F8
:10293C005B69002BD7D090F8FC21032AD3D19847A0
:10294C00D1E7002238B5044640251146402300F05B
:10295C00FBFD2B46C4F8105100228021204600F0CC
:10296C00F3FD012384F8FC31D4F8183225622BB125
:10297C00D4F8143221795B6820469847002038BD82
:10298C0001740020704790F8FC3180F8FD3104236D
:10299C0080F8FC310020704790F8FD3180F8FC3154
:1029AC000020704708B590F8FC21032A04D1D0F818
:1029BC001432DB6903B19847002008BD10B50446FA
:1029CC00802100F0DFFD2046BDE81040002100F022
:1029DC00D9BD000037B54B7804460D46092B00F2E3
:1029EC008180DFE813F0D000EC007F00E0007F0076
:1029FC0074000A007F00C000940049880B0A013B58
:102A0C00062B6FD8DFE803F0041C296E6E505900BA
:102A1C00D0F810321B680DF10601207C9847BDF8E8
:102A2C000620002A6ED0EB88002B6BD09A4228BF70
:102A3C001A460146ADF80620204600F083F961E005
:102A4C00027CD0F8143232B99B6A0DF1060098471B
:102A5C0002234370E3E7DB6AF7E7C9B205291CD808
:102A6C00DFE801F003070B0F1317D0F810325B6887
:102A7C00D1E7D0F810329B68CDE7D0F81032DB6884
:102A8C00C9E7D0F810321B69C5E7D0F810325B6982
:102A9C00C1E7D0F810329B69BDE7D0F814320DF1C4
:102AAC0006029B6B9847BAE7037CDBB9D0F814326B
:102ABC000DF106005B6B9847B1E7037C93B9D0F836
:102ACC0014320DF106001B6B98470723C1E78B8866
:102ADC0043B9CB8833B990F8FC318D78032B05F0D2
:102AEC007F0503D12046FFF769FF0BE080F8FE510C
:102AFC00294600F073FD204600F050F92DB1022359
:102B0C0084F8FC31002003B030BD0123F8E789784C
:102B1C00304D01292970E5D890F8FC31022B0CD0EE
:102B2C00032BDFD1B1B90223416080F8FC31FFF7F0
:102B3C0053FE204600F032F9E4E70029F9D00121D8
:102B4C000323416080F8FC312046FFF73AFE02284F
:102B5C00EFD1C7E741680129EBD0C9B2FFF73CFEC2
:102B6C0029786160F0E7CA88012ABBD190F8FC3162
:102B7C00022B03D0032BB5D1011D5DE701460023C9
:102B8C0041F8083F58E790F8FC31023B012BA9D8DB
:102B9C000123C360D0F804320BB10323C3600222BB
:102BAC0004F10C0148E74B88012BABD1C4F804327B
:102BBC00D4F8143229469B6820469847B9E790F818
:102BCC00FC31023B012B8DD84B88012B9AD1002371
:102BDC00ECE700BF1001002038B590F8FC3104463A
:102BEC00032B0D460DD10B79012B0AD8D0F81432DA
:102BFC009B689847EB8813B9204600F0CFF800206B
:102C0C0038BDFFF7DBFEFAE770B50A788E8802F064
:102C1C006002202A04460D46F3B205D1D0F81432D6
:102C2C009B689847002070BD4A78012A1CD02AD393
:102C3C00032AF7D190F8FC21022A40D0032A02D0B3
:102C4C00FFF7BCFEEEE74A8822B95E0602D01946B1
:102C5C0000F098FCD4F8143229469B68204698471B
:102C6C00204600F09BF8DDE790F8FC21022A26D0E4
:102C7C00032AE5D14A88002AD4D15906F0D0194646
:102C8C0000F08EFCE6E790F8FC21022A17D0032A0C
:102C9C00D6D103F07F0516F0800F00EB0515194611
:102CAC0014BF143505F5827500F088FC68B101235A
:102CBC002B6002222946204600F044F8B2E75A065F
:102CCC00B0D0194600F05EFCACE72860F1E70B7859
:102CDC0003704B784370CA788B7803EB02234380E4
:102CEC004A790B7903EB02238380CA798B7903EB46
:102CFC000223C380704710B50446802100F042FCCB
:102D0C002046BDE81040002100F03CBC30B588B135
:102D1C0005462B1A15F8014BDBB2002CF9D15B00E0
:102D2C00023313800B7003234B700223013810F80D
:102D3C00015F05B930BD5A1CCD54D2B20233DBB29F
:102D4C008C54F4E71346022210B5C0F8F4218361C9
:102D5C000A46C361002100F04FFC002010BD08B5ED
:102D6C0013460A46002100F047FC002008BD13461C
:102D7C00032210B5C0F8F421C0F808310A46C0F897
:102D8C000C31002100F046FC002010BD08B51346A4
:102D9C000A46002100F03EFC002008BD08B50423C3
:102DAC00C0F8F43100231A46194600F025FC002027
:102DBC0008BD08B50523C0F8F43100231A4619469E
:102DCC0000F028FC002008BD10B543780446FF2B0A
:102DDC0032D14FF400514D48FDF777FEA2784FF4F5
:102DEC00806112F0010218BF01224948FDF768FE0C
:102DFC00A2784FF4006112F0020218BF012244487D
:102E0C00FDF75EFEA278082112F0040218BF012221
:102E1C004048FDF755FEA278042112F0080218BFB5
:102E2C0001223B48FDF74CFEE2783B4B5A6322797A
:102E3C009A636279DA6310BD0F2B65D10223374C8C
:102E4C004FF4806132482370FDF734FE637800281C
:102E5C0048D043F001034FF400612D486370FDF737
:102E6C0029FE6378002840D043F00203082129484A
:102E7C006370FDF71FFE6378002839D043F004031C
:102E8C00042123486370FDF715FE637898B343F073
:102E9C00080310211F486370FDF70CFE637868B3BC
:102EAC0043F0100320211B486370FDF703FE637889
:102EBC0038B343F020031A4A637011881388C1F3A6
:102ECC000721E37053881748C3F30B1323F00F0348
:102EDC000B43A3705388114923710B22BDE810409A
:102EEC00FFF735BC23F00103B5E723F00203BDE780
:102EFC0023F00403C4E723F00803CAE723F010030C
:102F0C00D0E723F02003D6E710BD00BF001001402E
:102F1C00000C014000080140000400403C0100206E
:102F2C005001002008020020282230B595B0002165
:102F3C000DEB020000F036FC142200210DEB020018
:102F4C0000F030FC1022002101A800F02BFC4FF403
:102F5C00803301240B93022512934FF480130AA89B
:102F6C000A940E9411951393FEF796F900B1FEE7AF
:102F7C000F2305934FF480630790214605A806950F
:102F8C0008930993FEF750FB00B1FEE7122301935F
:102F9C004FF48003039001A80493FEF7F7FB00B1F4
:102FAC00FEE715B030BD000080B5834C92B0FDF744
:102FBC00EBF8FFF7B9FF102200210BA800F0F2FB91
:102FCC00A369012243F01003A361A3694FF40051DC
:102FDC0003F010030193019BA369784843F020038D
:102FEC00A361A369002503F020030293029BA3694C
:102FFC00012643F00403A361A369022703F0040331
:10300C000393039BA3694FF0080943F00803A361E2
:10301C00A3694FF4807803F008030493049BFDF735
:10302C004FFD002208216648FDF74AFD002240F6BC
:10303C0004416448FDF744FD4FF400530BA95F486D
:10304C000B930C960D950E97FDF754FC0BA95C4851
:10305C00CDF82C900C960D950E97FDF74BFC30236C
:10306C000BA957480B930C950D96FDF743FC40F6B6
:10307C0004430BA953480B930C960D950E97FDF733
:10308C0039FC63692A4633436361636929463340DB
:10309C0000930B20009BFDF7D5FA0B20FDF706FBE8
:1030AC0000F096F91022294607A800F07BFB1C22A1
:1030BC0029460BA80595069500F074FB5C23424C41
:1030CC00424A204684E80C00A560C4F80C802561B7
:1030DC00A561FEF745FD00B1FEE74FF4805307A94B
:1030EC0020460793FEF74AFC00B1FEE72046FEF7A8
:1030FC0051FD00B1FEE70590069005A92046FEF7AC
:10310C0013FE024600B1FEE760230C900D900F9069
:10311C000BA920460B93FEF783FD00B1FEE70422BA
:10312C000BA92046FEF77CFD00B1FEE74A460BA931
:10313C002046FEF775FD054600B1FEE7204600F07F
:10314C00D1F8234C234B204623604FF460230B957E
:10315C000C950D95C4F80880E6606561E3616560C7
:10316C002761FDF7DDF900B1FEE70B900D900BA97F
:10317C0020460C96FDF768F800B1FEE70BA9204637
:10318C000B960C97FDF760F800B1FEE70E48FEF7C2
:10319C00E9FB00210C48FEF7B1FD04210A48FEF7BB
:1031AC00ADFD08210848FEF7A9FD02220A4908488E
:1031BC00FDF706F9FEE700BF0010024000100140C9
:1031CC0000080140000C01405401002000040040A4
:1031DC00940100200024014050010020FEE7000073
:1031EC000E4B82B09A6942F001029A619A6902F020
:1031FC0001020092009ADA6942F08052DA61DB69CE
:10320C00074A03F080530193019B536823F0E0635A
:10321C0043F00073536002B0704700BF00100240CF
:10322C000000014030B5054687B01022002102A8ED
:10323C0000F0B8FA2A681D4B9A4235D103F56C435D
:10324C009A691B4842F400729A619A6902A902F4C5
:10325C0000720092009A9A69164C42F004029A612C
:10326C009B6903F004030193019B032302930393D3
:10327C00FDF740FB104B2046236000236360A360E6
:10328C008023E3604FF4807323614FF480636361A8
:10329C002023A3614FF48053E361FDF729FA08B1B1
:1032AC00FFF79CFF2C62656207B030BD0024014023
:1032BC0000080140C4010020080002400268084BCD
:1032CC0082B09A420AD103F50333DA6942F0020262
:1032DC00DA61DB6903F002030193019B02B07047D2
:1032EC000004004030B5044687B01022002102A82B
:1032FC0000F058FA2268154B9A4225D103F5033396
:10330C009A69022542F004029A619A69032402F038
:10331C0004020092009A9A6902A942F008029A618A
:10332C009B690B4803F008030193019BC023039591
:10333C0002930594FDF7DEFA012302A905480293D6
:10334C0003950594FDF7D6FA07B030BD0004004094
:10335C0000080140000C01407047FEE7FEE7FEE765
:10336C00FEE7704770477047FCF720BF0148FDF738
:10337C002DBA00BFC40100200148FDF7B1BC00BF4D
:10338C002C0400200F4B1A6842F001021A60596895
:10339C000D4A0A405A601A6822F0847222F4803274
:1033AC001A601A6822F480221A605A6822F4FE020B
:1033BC005A604FF41F029A604FF00062034B9A6000
:1033CC00704700BF001002400000FFF800ED00E065
:1033DC0010B5094C002209492046FFF7D1F90849DC
:1033EC002046FFF7E2F920460649FFF7C2F92046CE
:1033FC00BDE81040FFF7E0B908020020C000002033
:10340C0008000020B000002007B50D4B02689A425E
:10341C0012D103F5DA33DA69142042F40002DA61CE
:10342C000022DB69114603F400030193019BFDF7B5
:10343C0009F91420FDF73AF903B05DF804FB00BF5D
:10344C00005C004000F22C41D0F85C04FFF7CBB9D3
:10345C0000EB4113D3F83C22D0F85C04FFF7F0B931
:10346C0000EB4113DA6BD0F85C04FFF71BBAD0F811
:10347C005C04FFF797BA10B504460121D0F85C0440
:10348C00FFF77EFAD4F85C04BDE81040FFF759BA98
:10349C0010B50446D0F85C04FFF775FAA36923B1A4
:1034AC00024A136943F00603136110BD00ED00E0FE
:1034BC00D0F85C04FFF770BA10B5022308224FF065
:1034CC00030E04461749184880E80E400023C0F844
:1034DC005C44C4F820028361C3610362FDF7F9FA0E
:1034EC0008B1FFF77BFE002218231146D4F8200206
:1034FC00FDF7BAFE582300228021D4F82002FDF7F4
:10350C00B3FE982300228121D4F82002FDF7ACFEF3
:10351C00D82300220121D4F82002FDF7A5FE0020BB
:10352C0010BD00BF005C00402C04002008B5D0F892
:10353C002002FDF737FB03289ABF024B185C0220D0
:10354C0008BD00BFF837000810B51C46D0F82002A3
:10355C0013462246FDF751FB03289ABF014B185C1A
:10356C00022010BDF837000808B5D0F82002FDF78E
:10357C0067FB03289ABF024B185C022008BD00BFF2
:10358C00F837000808B5D0F82002FDF721FE032813
:10359C009ABF024B185C022008BD00BFF837000828
:1035AC0008B5D0F82002FDF73CFE03289ABF024B69
:1035BC00185C022008BD00BFF83700080A06D0F8D6
:1035CC00203245BF01F07F0103EB411303EB4113A4
:1035DC0093F82A0058BF93F82A02704708B5D0F820
:1035EC002002FDF7F6FA03289ABF024B185C022062
:1035FC0008BD00BFF837000808B5D0F82002FDF769
:10360C0058FB03289ABF024B185C022008BD00BF70
:10361C00F837000808B5D0F82002FDF732FB032874
:10362C009ABF024B185C022008BD00BFF837000897
:10363C000048704714010020704770470020704705
:10364C0008B5074B074AD3F818020123C15C9954FB
:10365C0001330A2BFAD10348FFF7B6FB002008BD53
:10366C00080200208C08002000207047122301481B
:10367C000B807047DC000020042301480B8070474E
:10368C00F000002010B5044C0A4604482146FFF710
:10369C003DFB204610BD00BF9808002023380008D1
:1036AC0010B5044C0A4604482146FFF72FFB204670
:1036BC0010BD00BF980800203638000810B5044C27
:1036CC000A4604482146FFF721FB204610BD00BFE7
:1036DC00980800205338000810B5044C0A460448DA
:1036EC002146FFF713FB204610BD00BF98080020B1
:1036FC00FC37000810B5044C0A4604482146FFF775
:10370C0005FB204610BD00BF980800200E380008AD
:10371C00002103E00B4B5B58435004310A480B4B20
:10372C0042189A42F6D30A4A02E0002342F8043BBC
:10373C00084B9A42F9D3FFF725FE00F00FF8FFF77C
:10374C0033FC70476838000800000020F4000020AB
:10375C00F4000020980A0020FEE7000070B5002558
:10376C000C4E0D4CA41BA410A54209D100F022F85C
:10377C0000250A4E0A4CA41BA410A54205D170BD0D
:10378C0056F8253098470135EEE756F8253098471E
:10379C000135F2E76038000860380008603800082E
:1037AC006438000803460244934200D1704703F882
:1037BC00011BF9E7F8B500BFF8BC08BC9E46704782
:0C37CC00F8B500BFF8BC08BC9E46704772
:1037D80002030405060708090A0B0C0D0E0F10104A
:1037E80000000000000000000102030406070809A9
:1037F80000020102437573746F6D204849442043E9
:103808006F6E66696700437573746F6D204849442D
:1038180020496E746572666163650053544D69632F
:10382800726F656C656374726F6E6963730053546D
:103838004D333220437573746F6D2048756D616E1A
:1038480020696E74657266616365003030303030AF
:08385800303030303031410006
:04386000310100082A
:043864000D0100084A
:10386800010000001000000013270008E1260008EE
:103878002126000800000000CF250008C525000803
:10388800FD25000800000000000000000000000006
:10389800B9250008B9250008B9250008F125000850
:1038A8000000000009022900010100C032090400DB
:1038B8000002030000000921110100012222000773
:1038C8000581030A0020070501030A002000000003
:1038D8000921110100012222000000000A0600024D
:1038E800000000400100000000A24A040600FF0991
:1038F80001A101850109017508950AB182850109AF
:10390800019182850209027508950A8182C000002A
:103918008C00002075360008493600084D3600082E
:10392800793600088536000891360008AD3600085B
:10393800C9360008E5360008013700081201000200
:1039480000000040830450570002010203010000F8
:043958000403090457
:040000050800371D9B
:00000001FF
