:020000040800F2
:1000000000500020ED1500084104000843040008DA
:1000100045040008470400084904000800000000E7
:100020000000000000000000000000004B04000879
:100030004D040008000000004F04000851040008AF
:100040003516000835160008351600083516000864
:100050003516000835160008351600083516000854
:100060003516000835160008351600083516000844
:100070003516000835160008351600083516000834
:100080003516000835160008351600083516000824
:100090005904000835160008351600083516000802
:1000A0003516000835160008351600083516000804
:1000B00035160008351600083516000835160008F4
:1000C00035160008351600083516000835160008E4
:1000D00035160008351600083516000835160008D4
:1000E0003516000835160008351600080000000017
:1000F0000000000000000000000000000000000000
:0C01000000000000000000005FF808F1A3
:10010C000348044B834202D0034B03B1184770479A
:10011C000C0000200C0000200000000005480649DF
:10012C00091A891001EBD171491002D0034B03B1AC
:10013C00184770470C0000200C0000200000000045
:10014C0010B5064C237843B9FFF7DAFF044B13B113
:10015C000448AFF300800123237010BD0C00002075
:10016C00000000008016000808B5054B1BB10549BE
:10017C000548AFF30080BDE80840FFF7CFBF00BFD4
:10018C0000000000100000208016000870B590B030
:10019C000024089409940B940C94019402940394F5
:1001AC0004940594012506954FF4803307930A9522
:1001BC0002260D960E934FF480130F9306A800F0B1
:1001CC008FFD0F230193029603944FF480630493E5
:1001DC000594294601A800F0C3FF10B070BD0000C3
:1001EC0008B500F02FFDFFF7D1FF00F023F800F069
:1001FC0083F800F0EDF80A4901230B6000234B60F3
:10020C00CB608B6008220A610B75064B064A0748C7
:10021C0000F098FA4FF4FA7000F038FDEBE700BFED
:10022C003C0000203000002028000020700000203E
:10023C007047000030B589B00024049405940694EE
:10024C000794294B9A6942F010029A619A6902F05C
:10025C0010020092009A9A6942F020029A619A69FF
:10026C0002F020020192019A9A6942F004029A610A
:10027C009A6902F004020292029A9A6942F0080208
:10028C009A619B6903F008030393039B174D0122AA
:10029C004FF40051284601F005F94FF40053049334
:1002AC000123059306940324079404A9284601F01E
:1002BC000DF84FF440430493059404A9284601F02B
:1002CC0005F849F6FF730493059404A9084800F057
:1002DC00FDFF4FF6FF430493059404A9054800F075
:1002EC00F5FF09B030BD00BF001002400010014006
:1002FC0000080140000C014008B50D480D4B03608F
:10030C000623436000238360C3604FF440220261E4
:10031C004FF480124261037643768376C37603777B
:10032C00437700F0BDF800B908BDFFF781FFFBE78C
:10033C00700000200064004010B586B000230293CA
:10034C0003930493059302681E4B9A4201D006B0A6
:10035C0010BD03F5D633DA6942F00072DA61DA695E
:10036C0002F000720092009A9A6942F008029A61B7
:10037C009B6903F008030193019B4FF48073029374
:10038C00114C02A9204600F0A1FF4FF40073029318
:10039C00022303930323059302A9204600F096FF42
:1003AC000A4A536823F4C04343F0E06343F48043A8
:1003BC00536000221146142001F094F8142001F02F
:1003CC00C5F8C4E700640040000C01400000014087
:1003DC0010B58AB00023059306930122079200936F
:1003EC00019302930393049308920E230993074CF1
:1003FC006946204600F0FAF8204600F075F9022113
:10040C00204600F0AEFA0AB010BD00BF700000200C
:10041C0008B5054B054A002100F00AFA4FF40051CB
:10042C00034801F045F808BD3400002054000020BA
:10043C00001001407047FEE7FEE7FEE7FEE770475D
:10044C007047704708B500F00FFC08BD08B50248AE
:10045C0000F0A5FA08BD00BF7000002082B00E4B62
:10046C009A6942F001029A619A6902F001020092C3
:10047C00009ADA6942F08052DA61DB6903F080534A
:10048C000193019B054A536823F0E06343F000732A
:10049C00536002B0704700BF0010024000000140E2
:1004AC00002800F0A18038B5044690F82030D3B174
:1004BC002268136823F00203136000F0E1FB054689
:1004CC0023685A6812F0020F10D000F0D9FB401BC1
:1004DC000A28F5D9636A43F400336362052384F870
:1004EC002030012038BDFFF727FFE1E71A6842F002
:1004FC0001021A6000F0C4FB054623685A6812F02A
:10050C00010F0DD100F0BCFB401B0A28F5D9636A22
:10051C0043F400336362052384F820300120E1E7C3
:10052C00227E012A3DD01A6822F080021A60637E76
:10053C00012B3BD02268136823F040031360A37E89
:10054C00012B39D02268136823F020031360E37E5B
:10055C00012B37D02268136843F010031360237FFC
:10056C00012B35D02268136823F008031360637FD6
:10057C00012B33D02268136823F004031360A368A3
:10058C00E268134322691343626913436268013AB8
:10059C0021681343CB6100206062012384F8203072
:1005AC00A0E71A6842F080021A60C0E7226813685C
:1005BC0043F040031360C2E72268136843F0200342
:1005CC001360C4E72268136823F010031360C6E7B6
:1005DC002268136843F008031360C8E722681368A5
:1005EC0043F004031360CAE701207047036890F8D6
:1005FC002020013AD2B2012A05D9436A43F4802360
:10060C0043620120704770B4D3F8002242F001021B
:10061C00C3F800224A6902F01F02012000FA02F21C
:10062C00D3F81C42D0430440C3F81C42CC69ACB98B
:10063C00D3F80C420440C3F80C42CE688D884C6948
:10064C0045EA0645483443F834508E680D884C69A9
:10065C0045EA0645483403EBC4046560CC69012CBB
:10066C0019D08C6974BBD3F804420440C3F804421B
:10067C000C696CBBD3F814422040C3F81402096A0D
:10068C0001292BD0D3F8002222F00102C3F800225A
:10069C00002070BC7047D3F80C421443C3F80C42D2
:1006AC000E688D884C6945EA0645483443F8345049
:1006BC008E688D894C6945EA0645483403EBC404C1
:1006CC006560CEE7D3F804421443C3F80442CFE785
:1006DC00D3F814021043C3F81402D0E7D3F81C1259
:1006EC000A43C3F81C22CDE738B590F82030DBB2B2
:1006FC00012B05D0436A43F400234362012038BD2B
:10070C000446022380F820300268136823F00103AA
:10071C00136000F0B5FA054623685B6813F0010F0F
:10072C000DD000F0ADFA401B0A28F5D9636A43F4EA
:10073C0000336362052384F820300120DFE70020BA
:10074C006062DCE770B490F820400568AD68013C4D
:10075C00E4B2012C65D815F0E05F5CD0C5F30165FF
:10076C00022D05D9436A43F40003436201205DE086
:10077C000124AC401C608B68002B39D10E68CB680F
:10078C00046843EA465605F118031B01E65003685A
:10079C000C6905F1180603EB06135C600B7D012B4D
:1007AC0031D0D17993791B0443EA0163517943EA3F
:1007BC0001231479016823432C012144C1F88C31A5
:1007CC00D17893781B0443EA0163517843EA0123FF
:1007DC00117802680B432244C2F88831016805F194
:1007EC0018031B01CA5842F00102CA5000201DE038
:1007FC004C6843EAC403CC680668234305F118042B
:10080C0024013351C3E7036803EB0613596841F421
:10081C0080715960C5E7436A43F4001343620120B9
:10082C0004E0436A43F480234362012070BC7047A8
:10083C0030B490F82040013CE4B2012C00F28A80E4
:10084C0051B90468E46814F0030F10D1436A43F4FF
:10085C0000134362012082E00468246914F0030F42
:10086C0005D1436A43F400134362012077E0056825
:10087C0001F11B0424012C5904F004049460002C95
:10088C005AD1056801F11B0424012C59640D146024
:10089C00056801F11B0424012D5905F00205D560F2
:1008AC00056825446D6805F00F051561056825443C
:1008BC006D68C5F30725956105682C446468240CA4
:1008CC00546104680A011444D4F8B8411C700468DB
:1008DC001444D4F8B841C4F307245C70046814447D
:1008EC00D4F8B841C4F307449C7004681444D4F899
:1008FC00B841240EDC7004681444D4F8BC411C715B
:10090C0004681444D4F8BC41C4F307245C71046833
:10091C001444D4F8BC41C4F307449C7104682244C9
:10092C00D2F8BC21120EDA7171B90268D36843F0A7
:10093C002003D360002012E0056801F11B042401A0
:10094C002C59E4085460A3E70268136943F02003B0
:10095C001361EFE7436A43F480234362012030BC08
:10096C00704790F82030013BDBB2012B05D9436A6C
:10097C0043F48023436201207047026853690B43A0
:10098C00536100207047704770477047704770473D
:10099C0070477047704770477047704770472DE934
:1009AC00F84F054603685C695F689E68D3F80CA035
:1009BC00D3F81090D3F8188014F0010F5AD016F019
:1009CC00010F17D001229A6016F0020F08D116F011
:1009DC00040F30D116F0080F07D04FF4805B0BE0FA
:1009EC00FFF7D1FF4FF0000B06E0FFF7CFFF4FF002
:1009FC00000B01E04FF0000B16F4807F0BD02B683E
:100A0C004FF480729A6016F4007F17D116F4806F41
:100A1C0018D04BF4005B16F4803F2DD02B684FF4AC
:100A2C0080329A6016F4003F16D116F4802F17D03E
:100A3C004BF4004B20E04FF4006BDDE72846FFF74A
:100A4C00A3FFE8E716F4006F02D04BF4804BE2E70B
:100A5C002846FFF79CFFDEE72846FFF796FF0BE0E2
:100A6C0016F4002F02D04BF4803B05E02846FFF72C
:100A7C008FFF01E04FF0000B14F0080F07D01AF0B5
:100A8C00100F04D04BF4007B2B681022DA6014F0AA
:100A9C00040F02D01AF0080F6AD114F0020F04D020
:100AAC002B68DB6813F0030F69D114F0400F07D0EB
:100ABC0019F0100F04D04BF4806B2B6810221A61C4
:100ACC0014F0200F02D019F0080F5CD114F0100FA5
:100ADC0004D02B681B6913F0030F5BD114F4003F97
:100AEC0002D017F0100F59D114F4803F02D017F038
:100AFC00080F5AD114F4004F35D017F0040F2FD033
:100B0C0014F4807F04D018F0010F01D04BF0010BCE
:100B1C0014F4007F04D018F0020F01D04BF0020B3C
:100B2C0014F4806F04D018F0040F01D04BF0040BB8
:100B3C0014F4006F14D018F0700811D0B8F1300F05
:100B4C0046D039D9B8F1500F48D0B8F1600F48D021
:100B5C00B8F1400F3FD02A68936923F0700393617A
:100B6C002B6804225A60BBF1000F3DD1BDE8F88F11
:100B7C002B680822DA602846FFF70BFF8DE7284622
:100B8C00FFF746FC91E72B6808221A612846FFF70D
:100B9C0002FF9BE72846FFF7FDFE9FE72B6810221C
:100BAC005A602846FFF7F8FE9EE72B6808225A6029
:100BBC002846FFF7F2FE9DE7B8F1100F05D0B8F10B
:100BCC00200FC8D14BF0100BC5E74BF0080BC2E758
:100BDC004BF0200BBFE74BF0400BBCE74BF0800B0E
:100BEC00B9E74BF4807BB6E76B6A43EA0B036B62A5
:100BFC002846FFF7D3FEB9E710B504460E4B18781C
:100C0C004FF47A73B3FBF0F30C4A1068B0FBF3F0BB
:100C1C0000F0AAFC68B90F2C01D901200AE00022CF
:100C2C0021464FF0FF3000F05DFC054B1C600020AE
:100C3C0000E0012010BD00BF0000002008000020D3
:100C4C000400002008B5074A136843F01003136032
:100C5C00032000F035FC0020FFF7CEFFFFF7FEFB72
:100C6C00002008BD00200240034A1168034B1B788A
:100C7C000B441360704700BF980000200000002058
:100C8C00014B1868704700BF9800002038B5044627
:100C9C00FFF7F6FF0546B4F1FF3F02D0044B1B787B
:100CAC001C44FFF7EDFF401BA042FAD338BD00BF38
:100CBC000000002082B0084B1B68084AA2FB0323EB
:100CCC005B0A00FB03F0019000BF019B5A1E0192CE
:100CDC00002BF9D102B0704708000020D34D6210F0
:100CEC00002800F0F18170B582B00446036813F05F
:100CFC00010F2CD0AA4B5B6803F00C03042B1DD006
:100D0C00A74B5B6803F00C03082B12D06368B3F598
:100D1C00803F41D0002B55D103F1804303F50433C0
:100D2C001A6822F480321A601A6822F480221A603F
:100D3C0037E09B4B5B6813F4803FE7D0984B1B6804
:100D4C0013F4003F03D06368002B00F0BF812368CD
:100D5C0013F0020F75D0924B5B6813F00C0F5FD041
:100D6C008F4B5B6803F00C03082B54D02369002BCA
:100D7C0000F089808B4B01221A60FFF781FF05463A
:100D8C00874B1B6813F0020F74D1FFF779FF401BE0
:100D9C000228F5D903209EE1814A136843F480337D
:100DAC001360636843B3FFF76BFF05467C4B1B680E
:100DBC0013F4003FCBD1FFF763FF401B6428F5D938
:100DCC00032088E1B3F5A02F09D0754B1A6822F4E3
:100DDC0080321A601A6822F480221A60E1E703F16B
:100DEC008043A3F53C331A6842F480221A601A68D7
:100DFC0042F480321A60D4E7FFF742FF0546684B95
:100E0C001B6813F4003FA2D0FFF73AFF401B642885
:100E1C00F5D903205FE1624B5B6813F4803FA5D1E9
:100E2C005F4B1B6813F0020F03D02369012B40F0BA
:100E3C004F815B4A136823F0F803616943EAC103ED
:100E4C001360236813F0080F32D0A369002B5BD01A
:100E5C00554B01221A60FFF713FF0546504B5B6A96
:100E6C0013F0020F21D1FFF70BFF401B0228F5D91D
:100E7C00032030E14A4A136823F0F803616943EA1E
:100E8C00C1031360DDE7474B00221A60FFF7F8FE41
:100E9C000546434B1B6813F0020FD2D0FFF7F0FE50
:100EAC00401B0228F5D9032015E10120FFF702FFB2
:100EBC00236813F0040F00F09780394BDB6913F0B3
:100ECC00805F33D1364BDA6942F08052DA61DB69EC
:100EDC0003F080530193019B0125344B1B6813F4E1
:100EEC00807F25D0E368012B36D0002B4CD103F149
:100EFC00804303F504331A6A22F001021A621A6A5B
:100F0C0022F004021A622CE0274B00221A60FFF731
:100F1C00B7FE0546224B5B6A13F0020FC8D0FFF7F1
:100F2C00AFFE401B0228F5D90320D4E00025D4E7FE
:100F3C001E4A136843F480731360FFF7A1FE064644
:100F4C001A4B1B6813F4807FCCD1FFF799FE801BE2
:100F5C006428F5D90320BEE0114A136A43F001035B
:100F6C001362E36873B3FFF78BFE06460C4B1B6AE8
:100F7C0013F0020F37D1FFF783FE801B41F2883349
:100F8C009842F3D90320A6E0052B11D0044B1A6A22
:100F9C0022F001021A621A6A22F004021A62E0E7D5
:100FAC0000100240000042428004424200700040A7
:100FBC004D4B1A6A42F004021A621A6A42F001029C
:100FCC001A62CEE7FFF75CFE0646474B1B6A13F02E
:100FDC00020F08D0FFF754FE801B41F28833984271
:100FEC00F3D9032077E0E5B9E369002B72D03E4AD0
:100FFC00526802F00C02082A56D0022B17D03B4B39
:10100C0000221A60FFF73CFE0446374B1B6813F0B6
:10101C00007F47D0FFF734FE001B0228F5D90320D0
:10102C0059E0314AD36923F08053D361DCE72F4B6D
:10103C0000221A60FFF724FE05462B4B1B6813F0A9
:10104C00007F06D0FFF71CFE401B0228F5D90320B9
:10105C0041E0236AB3F5803F1AD023494B6823F44F
:10106C007413226A606A024313434B601F4B0122C4
:10107C001A60FFF705FE04461B4B1B6813F0007F3C
:10108C000ED1FFF7FDFD001B0228F5D9032022E04D
:10109C00154A536823F40033A1680B435360DCE713
:1010AC00002018E0002016E0012B16D00E4B5B68D8
:1010BC0003F48031226A914211D103F47013626AF5
:1010CC0093420ED1002006E001207047012002E07F
:1010DC00012000E0002002B070BD0120FBE70120E0
:1010EC00F9E70120F7E700BF001002406000424220
:1010FC0010B487B0164C94E80F000DF1180C0CE9E5
:10110C000F00238AADF80430124B5B6803F00C021D
:10111C00082A03D0104807B010BC7047C3F38342B1
:10112C00624412F8102C13F4803F0CD0094B5B680E
:10113C00C3F34043634413F8143C074800FB02F02C
:10114C00B0FBF3F0E7E7054800FB02F0E3E700BF74
:10115C00981600080010024000127A0000093D00A9
:10116C00002800F0A08070B50446534B1B6803F0B8
:10117C0007038B420BD2504A136823F007030B432F
:10118C001360136803F007038B4240F08E802368D2
:10119C0013F0020F17D013F0040F04D0474A536812
:1011AC0043F4E0635360236813F0080F04D0434A00
:1011BC00536843F460535360404A536823F0F00380
:1011CC00A068034353600D46236813F0010F31D020
:1011DC006368012B20D0022B25D0384A126812F0FC
:1011EC00020F64D035494A6822F0030213434B6066
:1011FC00FFF746FD0646314B5B6803F00C03626853
:10120C00B3EB820F16D0FFF73BFD801B41F2883306
:10121C009842F0D9032045E0284A126812F4003FA6
:10122C00E0D101203EE0254A126812F0007FD9D1AE
:10123C00012037E0204B1B6803F00703AB420AD9AF
:10124C001D4A136823F007032B431360136803F044
:10125C000703AB422DD1236813F0040F06D0174AB5
:10126C00536823F4E063E1680B435360236813F085
:10127C00080F07D0114A536823F46053216943EADD
:10128C00C1035360FFF734FF0C4B5B68C3F30313CC
:10129C000B4AD35CD8400B4B18600B4B1868FFF70C
:1012AC00ABFC002070BD012070470120FAE7012043
:1012BC00F8E70120F6E700BF0020024000100240D2
:1012CC00AC1600080800002004000020F0B482B026
:1012DC0000263546A0E0002A58D0012A10D1CE684D
:1012EC000EE06A4FBA4251D048D9694FBA424DD03C
:1012FC0007F58037BA4249D0A7F58017BA4245D0D6
:10130C00FF2B57D88446FF2B57D8AC00DCF80020B5
:10131C000F27A74022EA070206FA04F42243CCF86E
:10132C0000204A6812F0805F75D05A4A946944F0E4
:10133C0001049461926902F001020192019AAC08D5
:10134C00A71C554A52F8272005F00307BF004FF0A1
:10135C000F0C0CFA07FC22EA0C0C504A904232D0CB
:10136C0002F58062904271D002F5806290426FD09B
:10137C0002F58062904224D0042225E0A7F5801764
:10138C00BA4203D007F58037BA42B9D18A687AB12C
:10139C00012A08D044610826B2E7CE680836AFE7C8
:1013AC00CE680C36ACE704610826A9E70026A7E74F
:1013BC000426A5E700F1040CA5E7A5F10804A40098
:1013CC00A4E7032200E00022BA4042EA0C020234F5
:1013DC00314F47F824204A6812F4803F3AD0304C01
:1013EC0022681A4322604A6812F4003F38D02C4C11
:1013FC0062681A4362604A6812F4801F36D0284C27
:10140C00A2681A43A2604A6812F4001F34D0244C1C
:10141C00E2681343E36001350B6833FA05F231D00F
:10142C000124AC4023409C42F5D14A68122AB7D023
:10143C003FF657AF022AB0D07FF64DAF032AB5D096
:10144C00112A7FF45DAFCE68043659E70122BBE761
:10145C000222B9E7124C226822EA03022260C2E798
:10146C000F4C626822EA03026260C4E70C4CA2686B
:10147C0022EA0302A260C6E7094CE26822EA0303EF
:10148C00E360C8E702B0F0BC704700BF0000211059
:10149C000000311000100240000001400008014023
:1014AC00000401400AB101617047090401617047F1
:1014BC00C3680B4201D04161704701617047000065
:1014CC00074AD36823F4E0631B041B0C000200F4EE
:1014DC00E060184340F0BF6040F40030D0607047CB
:1014EC0000ED00E030B4174BDB68C3F30223C3F10B
:1014FC000704042C28BF04241D1D062D01D9033B11
:10150C0000E000234FF0FF3505FA04F421EA040152
:10151C00994005FA03F322EA03031943002809DB77
:10152C000901C9B200F1604000F5614080F8001378
:10153C0030BC704700F00F000901C9B2024B1954BE
:10154C00F6E700BF00ED00E014ED00E0002807DB3B
:10155C0000F01F02400901239340024A42F8203058
:10156C00704700BF00E100E00138B0F1807F0AD283
:10157C00064B5860064AF02182F823100020986030
:10158C0007221A6070470120704700BF10E000E08E
:10159C0000ED00E00F4B1A6842F001021A60596826
:1015AC000D4A0A405A601A6822F0847222F4803282
:1015BC001A601A6822F480221A605A6822F4FE0219
:1015CC005A604FF41F029A60044B4FF000629A600D
:1015DC00704700BF001002400000FFF800ED00E073
:1015EC00002103E00B4B5B58435004310A480B4B72
:1015FC0042189A42F6D30A4A02E0002342F8043B0E
:10160C00084B9A42F9D3FFF7C5FF00F00FF8FEF72D
:10161C00E7FD7047C4160008000000200C000020F5
:10162C000C0000209C000020FEE7000070B5002696
:10163C000C4D0D4C641BA410A64209D100F01AF8F5
:10164C0000260A4D0A4C641BA410A64205D170BD9D
:10165C0055F8043B98470136EEE755F8043B98479C
:10166C000136F2E7BC160008BC160008BC160008D0
:10167C00C0160008F8B500BFF8BC08BC9E46704701
:0C168C00F8B500BFF8BC08BC9E467047D3
:1016980002030405060708090A0B0C0D0E0F1010AB
:1016A8000102000000000000000000000102030425
:0416B8000607080910
:0416BC0075010008AC
:0416C0004D010008D0
:0C16C40001000000100000000024F400F1
:04000005080015EDED
:00000001FF
